:020000040800F2
:1000000000200020593700089D350008A53500085C
:1000100000000000000000000000000000000000E0
:10002000000000000000000000000000AD350008E6
:100030000000000000000000B7350008C1350008CE
:10004000A937000800000000A9370008A9370008F8
:10005000A9370008A9370008A9370008A937000800
:1000600000000000A9370008A9370008A9370008D8
:10007000A9370008A9370008A937000800000000C8
:10008000A9370008A937000800000000A9370008B8
:10009000A9370008A9370008A9370008A9370008C0
:1000A000A9370008A9370008A9370008A9370008B0
:1000B000A937000800000000000000000000000058
:1000C00010B5064C2378002B07D1054B002B02D02E
:1000D000044800E000BF0123237010BD0802002087
:1000E000000000004C800008044B10B5002B03D02A
:1000F0000349044800E000BF10BDC04600000000F6
:100100000C0200204C8000080023C25C0133002A4E
:10011000FBD1581E7047000002B4714649084900DF
:10012000095C49008E4402BC7047C04603B4714666
:10013000490840004900095E49008E4403BC7047ED
:10014000002243088B4274D303098B425FD3030A16
:100150008B4244D3030B8B4228D3030C8B420DD329
:10016000FF22090212BA030C8B4202D312120902B7
:1001700065D0030B8B4219D300E0090AC30B8B42F5
:1001800001D3CB03C01A5241830B8B4201D38B03A3
:10019000C01A5241430B8B4201D34B03C01A524148
:1001A000030B8B4201D30B03C01A5241C30A8B428B
:1001B00001D3CB02C01A5241830A8B4201D38B0276
:1001C000C01A5241430A8B4201D34B02C01A52411A
:1001D000030A8B4201D30B02C01A5241CDD2C3098C
:1001E0008B4201D3CB01C01A524183098B4201D308
:1001F0008B01C01A524143098B4201D34B01C01AF3
:10020000524103098B4201D30B01C01A5241C3086A
:100210008B4201D3CB00C01A524183088B4201D3D9
:100220008B00C01A524143088B4201D34B00C01AC5
:100230005241411A00D20146524110467047FFE731
:1002400001B5002000F0F0F802BDC0460029F7D04B
:1002500076E7704703460B437FD4002243088B4266
:1002600074D303098B425FD3030A8B4244D3030B3D
:100270008B4228D3030C8B420DD3FF22090212BA02
:10028000030C8B4202D31212090265D0030B8B427E
:1002900019D300E0090AC30B8B4201D3CB03C01A68
:1002A0005241830B8B4201D38B03C01A5241430B43
:1002B0008B4201D34B03C01A5241030B8B4201D333
:1002C0000B03C01A5241C30A8B4201D3CB02C01A9E
:1002D0005241830A8B4201D38B02C01A5241430A16
:1002E0008B4201D34B02C01A5241030A8B4201D305
:1002F0000B02C01A5241CDD2C3098B4201D3CB01AC
:10030000C01A524183098B4201D38B01C01A52415A
:1003100043098B4201D34B01C01A524103098B425E
:1003200001D30B01C01A5241C3088B4201D3CB0049
:10033000C01A524183088B4201D38B00C01A52412C
:1003400043088B4201D34B00C01A5241411A00D2DC
:1003500001465241104670475DE0CA0F00D0494245
:10036000031000D34042534000229C4603098B42B5
:100370002DD3030A8B4212D3FC22890112BA030A3D
:100380008B420CD3890192118B4208D389019211BF
:100390008B4204D389013AD0921100E08909C30944
:1003A0008B4201D3CB01C01A524183098B4201D346
:1003B0008B01C01A524143098B4201D34B01C01A31
:1003C000524103098B4201D30B01C01A5241C308A9
:1003D0008B4201D3CB00C01A524183088B4201D318
:1003E0008B00C01A5241D9D243088B4201D34B0033
:1003F000C01A5241411A00D20146634652415B1075
:10040000104601D34042002B00D549427047634655
:100410005B1000D3404201B5002000F005F802BD9A
:100420000029F8D016E770477047C0468446100090
:1004300062468C461900634600E0C0461FB501F0D5
:1004400035F9002801D40021C8421FBD10B501F0C4
:1004500075F84042013010BD10B501F027F90028B1
:1004600001DB002010BD012010BDC04610B501F019
:100470001DF9002801DD002010BD012010BDC0467F
:1004800010B501F09FF8002801DC002010BD01200C
:1004900010BDC04610B501F095F8002801DA002023
:1004A00010BD012010BDC046F0B54F464646D646A9
:1004B00043025B0A4500C0B599460F1C2D0EC60FBE
:1004C000002D00D188E0FF2D00D18DE08022DB00DF
:1004D000D2041A430023914698469A467F3D7C02F7
:1004E0007B00640A1B0EFF0F002B68D0FF2B21D06E
:1004F0008022E400D204144342467F3B5B19002172
:100500005D1C0A2A2EDC7E404246022A23DC013A88
:10051000012A00D9BDE002296ED001292CD100208A
:100520000022C005F60710433043E0BCBA46B1468E
:10053000A846F0BD2B00FF33002C65D003224146B6
:1005400011433200013588467A40FF350A2900DD23
:10055000D8E016000321404601228240A620C000B8
:10056000024220D05346022B46D0032B00D1BBE0E1
:1005700051464C460129D2D02B007F33002B70DD31
:10058000620704D00F222240042A00D00434220142
:1005900003D5634B1C402B008033FE2B2CDCA201C7
:1005A000520AD8B2BDE790208000024227D1B93864
:1005B000FF3810426DD03E00A1468A46D2E7002C9B
:1005C00041D1012342461A4390462B004246012165
:1005D0005D1C0A2A97DDC5E7002B26D10423984627
:1005E000033B00259A467AE7002B18D1082398464A
:1005F000063BFF259A4672E7FF20002291E7802202
:100600000026FF20D2038CE7414602220135114328
:100610008846FF350A29A5DC02217E4074E70C23B9
:100620009846093BFF259A4659E7180002F00CF856
:100630004A46431F76259A4000236D4291469846CC
:100640009A462D1A4BE7200001F0FEFF4246431F59
:100650009C402B1A763B00215D1C0A2A00DC52E7E5
:1006600080E70122D31A1B2B00DD58E79E352200BC
:10067000AC40DA40631E9C412243530704D00F2351
:100680001340042B00D00432530137D5012000223F
:1006900047E7210C4A462404240C2700100C1204BE
:1006A000120C44435743484351433A0C091952181A
:1006B000944203D9802149028C4660443F041104CE
:1006C0003F0CC9198C01671EBC41120C890E12180F
:1006D0000C439201144312010ED5012362081C4001
:1006E000144349E73E00A14680224B46D2031A43F9
:1006F0005202FF20520A14E71D003DE7920100203C
:10070000520A0EE70F29EDD180224B46D203134245
:10071000EAD01442E8D13E00FF20224301E7C04660
:10072000FFFFFFF770B5002813D0C317C5185D4051
:10073000C40F280001F088FF9E2301001B1A962B8E
:100740000FDC082834D008398D406D026D0AD8B20C
:1007500002E0002400200025C0052843E4072043D0
:1007600070BD992B16DC421F052800D095402A0049
:10077000114802406E0709D00F263540042D05D0E0
:100780000432550102D59F2302405B1A9201550A9B
:10079000D8B2E1E70522121A2800D0400200080072
:1007A0001B3085402800451EA84102431500DEE7A6
:1007B0006D0296206D0ACFE7FFFFFFFB70B5041EA8
:1007C0000ED001F041FF9E2301001B1A962B0CDC7A
:1007D00008282FD008398C406402640AD8B201E09E
:1007E00000200024C005204370BD992B16DC421F59
:1007F000052800D09440220010480240650709D027
:100800000F252C40042C05D00432540102D59F231F
:1008100002405B1A9201540AD8B2E3E702002000BA
:100820001B3290400200501E82410520401AC440F5
:100830001443E0E764029620640AD3E7FFFFFFFB5E
:10084000F0B557464E464546DE46E0B583B00090CB
:1008500001910C034F00CE0F610A009C1D03640F31
:100860000C43009900920193C80059004B0D994622
:10087000009A019B6D0AD90F530F2B439A46009B98
:100880007F0DDA0094464A46B046BA1A8E4200D12D
:10089000B0E0002A00DC78E04946002900D1E9E018
:1008A000C9498F4200D195E10125382A16DC802103
:1008B000534609040B439A461F2A00DDE7E1202135
:1008C00055468B1A61469D40D1400D436146994083
:1008D0004B1E99415346D3400D43E41A451BA84291
:1008E00080414042241A230200D40FE16402640ACA
:1008F000002C00D139E1200001F0A6FE0300083BE6
:1009000020212800CA1AD0409C4002009D4022436A
:100910009F4200DD73E1D81B0130091A2C008D4085
:10092000C4406B1E9D411300C2408B4025430027ED
:1009300014001D436B0709D00F232B40042B05D057
:100940002B1DAB42AD416D4264191D00230200D442
:100950002DE19D4A0137974200D1D3E046469B499D
:10096000ED0821404A072A437C054D022D0B640DFA
:1009700024052C43F60734431000210003B0F0BCDB
:10098000BB46B246A946A046F0BD002A00D184E08D
:100990004A46D21B002F00D06DE12500054300D14F
:1009A00027E1561E012A00D13BE2874DAA4200D121
:1009B0006AE20125382E12DC32001F2A00DDF8E140
:1009C00020262500B61A07005346B040D440B54053
:1009D000D740461EB0411B1B9A463D430543624625
:1009E000551BAC459241534652420E004F46884635
:1009F0009C1A78E7002A00DC8EE04946002975D170
:100A000061465346194300D1F6E0511E012A00D138
:100A100091E16D4DAA4200D1DCE00125382914DCBA
:100A20000A001F2A00DDA2E120215346891A8B40CB
:100A30001D006346D3401D4363468B4019004B1E87
:100A400099415346D3400D43E4182D188542804107
:100A500040422418230259D55B4B01379F4251D0A5
:100A600001215A4B6A081C4029400A43E5071543F7
:100A700064085FE761465346194300D1BCE0511E4C
:100A8000012A00D164E1504DAA4200D16AE101255A
:100A9000382900DD22E70A000EE74D4A7D1C154289
:100AA00000D0D0E025006246534605431A43002F8C
:100AB00000D037E1002D00D1A8E1002A00D16AE181
:100AC0006346C51A5346E21AA8429B415B42D31AB9
:100AD0001A0200D403E263461D1AAC459241534604
:100AE00052421C1B0E008846A41A23E736498F4247
:100AF00070D00125382AA8DC8021534609040B4315
:100B00009A468EE73C000025002231E707232B4060
:100B1000002B00D010E793E0002A74D04A46D21B85
:100B2000002F00D1C7E02849894500D185E1012582
:100B3000382A12DC802109040C431F2A00DDABE1B6
:100B400020212500891A070088408D40D740411E8A
:100B50008841D4403D430543A244654465459241E4
:100B60005242524414004F4674E7280001F06CFDD5
:100B7000030018331F2B00DCC2E62A00083882402D
:100B80009F4200DDA9E0DB1B581C1F2800DCACE104
:100B900015001F3BDD40202805D040231B1A9A403A
:100BA000531E9A411543072300272B40B0E7ED0859
:100BB000054B62072A43E4089F420FD02403250B0C
:100BC0007C05640DD4E6C046FF070000FFFF7FFFF1
:100BD000FE070000C00862070243E4081300234335
:100BE00000D186E180252D0325432D03C34C2D0B19
:100BF000BEE6604654460E001700C508D8E7C04C54
:100C0000FF1A144096E6BF4A791C11426BD12200AC
:100C10000243002F00D0DBE0002A00D12DE1624624
:100C200053461A4300D1B6E06346C5188542804159
:100C3000544440422418230202D50F00B04B1C40FC
:100C40003A002800D8E76246851AA84292415346E6
:100C500052429146E31A1A004B46D21A13009146AB
:100C60001A0254D44A464C462A4300D040E6002695
:100C7000002400257CE6A14DA94500D190E0012586
:100C8000382A00DDABE680252D042C4395E61100C3
:100C900055462039CD40A946202A06D0402153464A
:100CA0008A1A934062461A43944665466B1E9D41DC
:100CB0004B461D4312E62100014300D1C4E0511E02
:100CC000012A00D1FBE08D4DAA4200D1B5E00125FB
:100CD000382900DD41E70A002FE7894CFF1A14404C
:100CE0006207E4086AE7854A914200D1E3E063467F
:100CF000C218824280412300404253441B18DD0742
:100D00005C080723520815430F002B4000E7634699
:100D10001D1AAC459241534652421C1B0E00884698
:100D2000A41AE5E5002D00D091E0002A38D18024F6
:100D30000026240356E76346C51885428041544483
:100D4000404224180127230200D4DFE6022787E669
:100D50006346C51AA842804153464042E41A01271F
:100D6000241AC0E56207C0080243E40836E7110010
:100D700053462039CB409946202A06D0402153467D
:100D80008A1A934062461A43944665466B1E9D41FB
:100D90004B461D4359E66207C0080243E4080DE7CD
:100DA00053465A076346D80853460E000243DC08F0
:100DB00014E715002600203DEE40202A03D04025F0
:100DC000AA1A94402043421E90410500354306E68E
:100DD000002A7CD062465346C0081A4300D1FAE686
:100DE000620710438022E4081203144208D0D90895
:100DF000114205D16346D80853460C005B071843DF
:100E0000420FC000C00852070243E7E6002A00D1A3
:100E10002DE76346D80853465A070E000243DC0804
:100E2000CCE663461D1AAC459241534652421C1B08
:100E30000E008846A41A013755E56346D908534683
:100E40005A070A43DC08C9E660465446D4E6C0089F
:100E5000002A00D1BFE6620710438022E408120393
:100E60001442CDD0DD081542CAD16346D808534696
:100E70005B070E002C001843C2E76346D9085346AF
:100E80005A070A43DC0899E66346D80853465A07CE
:100E90000E000243DC08A1E6110027002039CF40F4
:100EA000202A03D040218A1A94402043421E9041B8
:100EB00005003D4351E60C000025002258E5604442
:100EC00060459241544452420500A4183AE7534603
:100ED0005A076346D90853460A43DC087EE61A00DF
:100EE0001C002A4300D0ABE6C1E620210025091AE8
:100EF00019E500220025014C3AE5C046FF07000035
:100F0000FFFF7FFFFE070000F0B5DE46454657466F
:100F10004E46E0B587B0009201930B031B0B9B4636
:100F2000CA0F4B00040080465B0D029200D16AE1BB
:100F3000D44A934200D18CE15946420FC9000A437A
:100F4000802109041143C2009046CF4A8946924647
:100F50009A44002300240393009E019F3B031B0B34
:100F60009B467B0030005B0DFD0F002B00D128E17C
:100F7000C44A934200D177E15946720FC9000A432F
:100F80008021090411438B46BF49F2008C4651462B
:100F90006344CB1A9A460023029E6E400F2C27D83A
:100FA000BA49A40009598F46CB464246029E039B8C
:100FB000022B16D0032B00D1A6E2012B00D0DFE0DC
:100FC00000220023002490461B052343F6073343E9
:100FD0004046190007B0F0BCBB46B246A946A04641
:100FE000F0BD002200249046A64BEDE72E00DFE77F
:100FF000CB4500D2D4E100D1CFE101235B429C4636
:10100000444648460027E2445B46150E1B021D433A
:10101000190C2B04120200951D0C914602910395A8
:10102000FFF714F902006A430B04210C80461943B0
:101030008A4209D9009D0123AC465B4261449C462B
:10104000E0448D4200D8FBE1881A0299FFF7FEF8D0
:10105000039A240442430904240C03000C43A242D3
:1010600006D90099013B8C466444A14200D8E1E1D5
:10107000A01A424612041A4393464B4659461B0C8B
:101080001D0004930B0449460904090C0C001B0CB9
:101090005C43120C6B43884651436A43250CAC46B3
:1010A0005B186344994203D9802149028C4662440B
:1010B000190C24041B04240C8A181C19904202D316
:1010C00016D1A74214D25B46009D013B4F440593C5
:1010D0004F459B41AC465B426344C018854200D3F8
:1010E000A1E1824200D9F6E100D1F1E1059B9B46E6
:1010F0003C1BA742BF41009D801A7F42C01B854216
:1011000000D1D0E10299FFF7A1F8039A0B04424302
:10111000210C070019438A4200D978E1881A029904
:10112000FFF794F8039A240442430904240C0300B3
:101130000C43A24200D95DE14146A41A3A041A4385
:10114000049D13041B0C594347466B439C46100CEB
:1011500047430B0CBC44634468439F4203D980253A
:101160006D02AC4660441F0C09041B04090C3F18B7
:101170005B18BC4200D202E100D1FDE001231A431A
:10118000434B5344002B00DCAEE0510700D098E104
:101190005946C90106D559463E4B194080238B4616
:1011A000DB0053443C498B4200DD1AE75946D20824
:1011B000490711435A465B0554028846240B5B0DD0
:1011C00002E75A46009B1A4300D17EE05B46002BA3
:1011D00000D100E1584601F037FA020003000B3A53
:1011E0001D27009EBA1A19005846D6400839884073
:1011F000320002439346009A8A40284953448A4663
:101200009A440023C8E65B460343994656D05B46A2
:10121000002B00D1CDE0584601F016FA0B235B42BB
:101220009C460200844466461D239B1B2600110039
:101230005846DE400839884033000343994623006E
:101240008B409846164B00249B1A9A460023039322
:1012500082E65A46024391462AD100229A46022348
:1012600090460824039377E65A46009B1A430D4B99
:101270009C46E244002A17D102231C4300239B46CC
:10128000023389E6FF07000001FCFFFF9C80000895
:10129000FF030000FFFFFFFEFE070000F303000056
:1012A0000DFCFFFF01F8FFFF032332001C4373E630
:1012B0009A460323D9460C2403934DE6002398460F
:1012C0009A4601330424039346E601231C4300237A
:1012D0009B46013360E60023802498460026924B0B
:1012E000240371E6012252420121C91A382900DD86
:1012F00066E61F2900DCABE01F204042C31A5846B7
:10130000D8400300202904D05846884951448840D9
:101310000243511E8A411A43072319000024114039
:1013200013420CD00F231340042B00D1F9E0111D00
:1013300091429B410A005B4259075B021C0BD20899
:101340000A43904600233FE680244B462403234271
:1013500009D05B46234206D11C4324032E0090464D
:10136000714B240B30E680244B4624031C4324039A
:10137000029E6D4B240B27E6002B00D100E700985E
:10138000511E84466444844200D284E0BC4200D2B0
:10139000AEE000D1C1E00A00F0E6424500D92CE6FB
:1013A0004B46DC07580843465B081C434346DF07AF
:1013B0002AE601F049F915239C468444020063465D
:1013C00020321C2B00DC2EE723000838834099468E
:1013D0000023984636E701F037F902000300153282
:1013E00020331C2A00DCFBE60099083881400022EB
:1013F0008B4602E70099013B8C466444A14200D928
:101400009AE6A24200D897E6831E644494E6AC466E
:101410006144013F8D4200D980E68A4200D87DE6D2
:10142000871E61447AE6854200D05FE6B94500D95F
:101430005CE656E6A24200D81AE6831E644417E62C
:101440008A4200D800E6AC46831E98466144FBE51C
:1014500037481400504482405B4617008340CC401C
:101460007A1E974123433B431A005B46CB4051070A
:1014700009D00F211140042905D0111D914292413C
:1014800052429B180A00190200D455E7002201239A
:101490000024904698E50A00BC4200D06EE64B4519
:1014A00000D06BE66CE6234B234A5344924500DAA6
:1014B00018E7012149420A1D8A42894149428B4469
:1014C00066E60F211140042900D161E61100F2E720
:1014D000BC4200D80AE602235B429C4600994F4476
:1014E0004F459B41E3448C465B426344C018FFE593
:1014F0004946009D480048458941AC4649426144FF
:101500008146023A6418C7E780245B4624031C43E3
:1015100024039046044B240B56E59945E8D30A0072
:10152000BDE7002308E7C046FF0700003E040000B7
:101530001E040000FF03000002FCFFFFF0B5574649
:10154000DE464E464546E0B50D000400E80F8346F2
:101550000903D80F090B824619488C461F036900FE
:101560005E00490D3F0B760D814218D086420FD0A8
:101570000120B1420DD1BC450BD1944209D1D345D4
:101580001CD0002905D160462043431E984100E04D
:101590000120F0BCBB46B246A946A046F0BD0120E2
:1015A0008E42F6D1614639430F0017432743F0D1ED
:1015B0005B465246981A431E9841EAE70020E8E746
:1015C000FF070000F0B557464E464546DE46E0B5FB
:1015D0000D000F03390B83B00400804601915800C1
:1015E000E90F314F400D8C466E001903824691463B
:1015F000760D090BD80FBE421FD0BA450FD0002E72
:101600002FD15546019E3443002D27D10A433AD0AD
:10161000002C45D100281AD10120404217E0114387
:101620003BD1002E02D1019F2743F3D0844509D13D
:101630006346002BF0D0604609E0019F27432CD180
:10164000B24524D063460220013B1840013803B064
:10165000F0BCBB46B246A946A046F0BD002CD9D08E
:10166000E4E75446002CEDD08445EBD15645E9DC47
:10167000DEDB019B8B42E5D8DAD1C845E2D80020F9
:10168000C845E4D2D4E70020002CE0D0DAE71143CB
:1016900003D18445D6D10020D9E702204042D6E7C5
:1016A0008445E6D0CEE7C046FF070000F0B55746B8
:1016B0004E464546DE46E0B50D000F030400804669
:1016C000E80F390B844683B05800304F400D01912C
:1016D0001E03690082469146490D360BD80FB94268
:1016E00020D0BA450FD000292BD101990C43514687
:1016F000002937D1324338D0002C44D1002819D1E9
:101700000120404216E0164313D1002902D1019F67
:101710002743F3D0844520D063460220013B184084
:10172000013807E0019F274303D18A45F4D11643CE
:101730001FD0022003B0F0BCBB46B246A946A0466B
:10174000F0BD5446002CE7D08445E5D15145E3DC9B
:1017500003DB019BB342DFD80FD06346002BCFD011
:101760006046E7E7002CC9D0D4E70020002CE1D088
:10177000D2E78445D0D10020DCE7C845CCD8002092
:10178000C845D7D2E9E78445E3D0C5E7FF070000A5
:10179000F0B55746DE464E464546E0B51F000B0302
:1017A0001B0B16009A46CA0F4B000400934687B0E5
:1017B0005B0D00D1D5E0BB4A934200D1F8E0514621
:1017C000420FC9000A43802109041143C200914617
:1017D000B54A8A469D180023984602933C037B0035
:1017E000FA0F3000240B5B0D009200D196E0AD4A59
:1017F000934231D0720FE400224380242404144326
:10180000A94AF000944663445B195A1C019242466F
:1018100000260A2A42DC5A4600994A40934642462C
:10182000022A32DC013A012A00D949E1022E00D114
:10183000CAE0012E3DD100230024002210005A46A8
:101840001B052343D2071343190007B0F0BCBB4666
:10185000B246A946A046F0BD924B2643EB18002E97
:1018600000D1BBE00322414611435A468846009905
:101870004A40802109018C4629006144019141467A
:101880000A2900DD33E293460326424601279740AA
:10189000A6213A00C9000A400F4231D0029E022E12
:1018A00000D135E2032E00D1D2E154464846012E44
:1018B000C1D0019A7D4B94466344002B00DCC0E00C
:1018C000420709D00F220240042A05D0021D82429D
:1018D0008041404224181000E20106D5744B019A61
:1018E0001C4080239446DB006344724A93426BDCC5
:1018F0006207C00864025B050243240B5B0D9DE791
:10190000902189000F4263D188223A4200D1D7E06A
:10191000009BA2469B4681460296BFE723003343C5
:1019200000D17FE0002C00D1ADE1200000F08CFE62
:10193000020003000B3A1D201900821A30000839FA
:10194000D0408C400443300088405B4AEB1A9446F8
:1019500063445A1C0192424600260A2A00DC5AE7D8
:101960009CE753460343994654D05346002B00D17D
:1019700077E1504600F068FE0B235B429C46020074
:10198000844411005046083988401D238046604633
:101990001B1A2000D8400300404603439A46230008
:1019A0008B4099460023444D9846AD1A029315E7A3
:1019B00052460243914626D100221D000223924640
:1019C00008329046029309E700240022354B35E7A0
:1019D000002380249B462403324B2FE702224146FA
:1019E00011438022120194462A00624488460192E3
:1019F0000A2900DD52E75A460020009904004A40B7
:101A0000934602260BE70C221D00032381469046D5
:101A10000293E3E600239A4604339846033B0025ED
:101A20000293DBE6424601331A432B0090465A1CD0
:101A3000019242460024002001260A2A00DCEAE640
:101A40002CE70122D21A382A00DDF4E61F2A00DC36
:101A50002AE11F214942CB1A2100D9400B00202A3C
:101A600005D0164A019D94466544AC402043421E71
:101A700090411843072319000024014003420CD071
:101A80000F230340042B00D140E1031D8342A441F6
:101A90001800644261076402240BC20800230A4351
:101AA000CCE6C046FF07000001FCFFFFFF0300007B
:101AB000FFFFFFFEFE0700000DFCFFFF3E040000DD
:101AC00049464A460904090C0D00160C020C000494
:101AD000000C4543AC4605007543A84615000F00B1
:101AE0007543009202952A00009D6F4365462D0CB8
:101AF000A94647444F44B84505D9150080225202F3
:101B00009046454402953D0C039565462D043F04DF
:101B10002D0CAC463D0065440495250C2404240C92
:101B2000AC4625007543A84665460F00694341440D
:101B300089466743390C49446E43884503D980225E
:101B40005202904646440D0CA84635004544059582
:101B5000039D3F04A8463F0C0904C9198844454623
:101B6000039555462E04360C2F0C3500454378431B
:101B700081463800A8462D0CAA46009A504372436D
:101B80004A445244914503D980256D02A9464844F0
:101B9000150CA94645462D042D0CA84665467D43E7
:101BA000120448449044A9463200654662436E439D
:101BB0007C43170C3619BF19BC4203D98024640238
:101BC000A446E144029C039EA446059D66448E42C1
:101BD0008941AC4612043C04120CA21862444942EA
:101BE00054184644A4464645A44182466442A04651
:101BF000AA4292418C458941E244D0444942524232
:101C00000A43A045A44182458941644249420C43AC
:101C100041463F0CD2191219CC0D049970020843A9
:101C2000411E884141464A44F60D52023043490262
:101C300014430843D20135D501224308024013431F
:101C4000E0071843640834E6009BA2469B468146A1
:101C50008024534624031C4324034A462E4B240B62
:101C6000ECE500F0F1FC15239C4684440200634639
:101C700020321C2B00DC84E6002399462300083820
:101C800083409A468EE600F0DFFC02000300153226
:101C900020331C2A00DC4EE602003400083A002003
:101CA000944052E6019304E61C4B21009C4603003D
:101CB000019DD3406544A94019430300AB40581E21
:101CC000834119430800D4404B0709D00F230B4030
:101CD000042B05D00B1D8B42804140422418180074
:101CE000230200D4D6E6012300240022A6E50F2912
:101CF000AAD1802352461B031A42A9D01C42A7D165
:101D00001C43009B02009B46034B97E50024C1E661
:101D10000024014B220091E5FF0700001E04000093
:101D2000F0B54E464546DE465746E0B585B00090D4
:101D300001910C034F00CE0F610A009CB046640F66
:101D40000C4300997F0DC80011001A001B039C462C
:101D50000091019251004B0D9946019B009DD90FB6
:101D600063466A0F5B0A1343EA0094469346C14AEE
:101D700003900293914500D1CDE0012569404D4685
:101D80007D1BAA468E4200D180E0002D00DC35E3A9
:101D90004946002900D1DFE0974200D194E1524644
:101DA0000125382A19DC8022029B12041343029376
:101DB00052461F2A00DDE3E1534620226146029D80
:101DC000D21A9540D9400D43614691400A00511EF8
:101DD0008A411543029ADA40A41A451BA842804161
:101DE0004042241A230200D43DE16402640A002C1C
:101DF00000D147E1200000F027FC0300083B202130
:101E00002800CA1AD0409C4002009D4022439F42B5
:101E100000DD77E1D81B0130091A2C008D40C44049
:101E20006B1E9D411300C2408B40254300271400C8
:101E30001D436B0709D00F232B40042B05D02B1D0E
:101E4000AB42AD416D4264191D00230200D440E154
:101E5000884A0137974200D101E10126434686496D
:101E6000ED0821404A072A437C054D022D0B640DE5
:101E70001E4024052C43F60734431000210005B012
:101E8000F0BCBB46B246A946A046F0BD002D00DC22
:101E9000D0E24946002900D0D4E06146029B1943B4
:101EA00000D12BE1691E012D00D1D9E1954200D16D
:101EB0000AE10125382917DC8A4653461F2B00DD2D
:101EC000E7E12022D21A029B614693401D0053464F
:101ED000D940634693401A000D43511E8A41534630
:101EE0001543029ADA40A4182D18854280414042D9
:101EF0002418230200D4B6E05E4B01379F4200D184
:101F0000ADE001215C4B6A081C4029400A43E5070B
:101F1000154364088DE7594A029B92466246BA44CB
:101F20001A432CD08E422ED05246002A60D0002F69
:101F300000D1DBE063460E00029CD8086207024332
:101F4000E4081300234300D154E280252D032543E8
:101F50002D03484C2D0B8CE76146029B194300D1A1
:101F6000CCE029000139012D00D188E1954200D152
:101F7000AAE00125382900DD2FE78A4618E701226B
:101F800051408E42D0D15346002B00D1BEE0002FED
:101F900000D038E1CA462200024300D1E2E15346B4
:101FA000591E012B00D10DE2324A924500D1D2E1F7
:101FB0000127382913DC1F2900DDEEE12022029BD6
:101FC000521A250007009A46CC4090409540CF40D9
:101FD000A244421E904153462F43074302933D00C3
:101FE000654465459241029B52424F46D41880E7B2
:101FF000234A7D1C154200D0AAE062462500029BC0
:1020000005431A43002F00D0F5E0002D00D16BE10D
:10201000002A00D152E16346C51A029BE21AA84287
:102020009B415B42D31A1A0200D4D5E163461D1AC4
:10203000AC4592410126029B52421C1B8846A41AC1
:102040000E40F6E697423FD052460125382A00DD81
:102050004AE78022029B1204134302932DE73C00BF
:102060000025002205E707232B40002B00D0E2E6E5
:102070006BE0C046FF070000FFFF7FFF01F8FFFF96
:10208000FE070000280000F0DFFA030018331F2BC2
:1020900000DCB4E62A00083882409F4200DDB9E047
:1020A000DB1B581C1F2800DCA0E115001F3BDD4096
:1020B000202805D040231B1A9A40531E9A411543ED
:1020C000072300272B40D0E7C00862070243E4083B
:1020D00037E7EA0863071A43D34BE4089F4200D16D
:1020E0002FE72403250B7C05640DC2E6CA462200B7
:1020F000024358D163460E00029C0393039B57464C
:10210000DA08E7E7C94CFF1A144092E6C84D7A1C7A
:102110002A4200D084E022000243002F00D0EFE0EA
:10212000002A00D1E5E0624602990A4300D1C5E0E9
:102130006346C5188C468542804164444042241859
:10214000230202D5B94B01371C40BA460395D5E7A7
:102150006246851AA842924152429146029BE31A76
:102160001A004B46D21A130091461A026CD44A4602
:102170004C462A4300D03AE600260024002578E6A3
:10218000029953460D00203AD540202B06D040221C
:10219000D21A0B00934062461A4393465B465A1E7E
:1021A00093411D4319E653465A1E012B00D1C6E048
:1021B0009D4EB24500D1BDE688460E000125382A65
:1021C00010DC1F2A7FDC20212500891A07008840A7
:1021D0008D40D740D440411E8841029B3D431B1B8C
:1021E000054302936246551BAC459241029B524205
:1021F0004F469C1AF6E5002D00D0B7E0002A00D12A
:10220000F0E001260E4063460298D90842070A43CF
:10221000C40896E6854CFF1A14406207E40860E79C
:1022200081498A4200D1C9E06346C1188142804198
:10223000029B4042E3181B18DD075C08072349088E
:102240000D4317002B4010E763461D1AAC45924121
:102250000126029B52421C1B8846A41A0E40C6E56A
:102260006346C518029B854280419C4640426444B7
:1022700024180127230200D4F5E6022741E663462D
:10228000C51AA8428041029B4042E41A0127241A41
:10229000A8E5029D52462B00203AD3401900534630
:1022A000202B06D04022D21A2B00934062461A43BC
:1022B00093465D466B1E9D410D4315E66207C008BF
:1022C0000243E4080DE7110027002039CF40202AFF
:1022D00005D040218A1A9440250005430395039DAB
:1022E0006A1E95413D437DE7002A00D144E701265F
:1022F0000E406346D908029B5A070A43DC08F0E601
:10230000002A28D06246029FC0083A4300D1DCE68A
:10231000620710438022E4081203144209D0FD082A
:10232000154206D1634601262C00D8087B071843C6
:102330000E40420FC000C0085207024301E6634648
:102340001D1AAC459241029B52421C1B0E0088464E
:102350000127A41A46E56346D908029B5A070A4397
:10236000DC08EEE56346029C0393C7E6C008002A3A
:1023700000D1AAE6620710438022E4081203144247
:10238000D7D0029FFD081542D3D163460126D80855
:102390007B072C0018430E40CBE70A002700203AA9
:1023A000D740202905D04022521A944025000543E9
:1023B0000395039D6A1E95412F4310E614000025E6
:1023C000002256E5029B60449946604592414C4488
:1023D00052420500A4184CE71A001C002A4300D002
:1023E000B3E6C9E6802400262403AEE520210025BB
:1023F000091A17E5002200250B4C3AE5002D00D103
:10240000F6E54B46DA1B9246002F00D16FE6382ADC
:1024100005DC80263604344388460E00D1E6884623
:102420000E000125DEE6C046FF070000FFFF7FFF2C
:10243000FE070000002D00D168E64B46D91B002F97
:1024400001D18A46A7E50127382900DDC7E58022AA
:1024500012041443AFE5C046F0B5C6461E03360B62
:10246000B0460D4E0C034D005F0000B5240B6D0D02
:102470007F0DB5420BD0084900208F4204D146465B
:1024800016433000431E984180BCB846F0BD04435B
:102490000120002CF8D1EEE7FF0700000B0002003E
:1024A00070B5164D0C0382B04900002000920193D4
:1024B000240B490DDE0FA94204DD1148814203DDE2
:1024C000104BF01802B070BD8020400320430E4C2A
:1024D000641A1F2C08DD0D4B5B1AD84003005842CC
:1024E000002EEFD11800EDE7094B009A9C4603003F
:1024F00061448B40E2401343F1E7C046FE03000015
:102500001D040000FFFFFF7F3304000013040000E0
:10251000EDFBFFFF70B5002816D0C317C5185D404E
:10252000C40F280000F090F8104B1B1A5B055B0DE0
:102530000A2814DC02002E00153296400B22121AD3
:10254000D5402D032D0B03E0002400230025002699
:102550001B052B43E40723433000190070BD0B38E3
:1025600085402D0300262D0BF2E7C0461E04000017
:1025700010B5041E10D000F067F80E4B1B1A5B0557
:102580005B0D0A280FDC0B222100121AD1401530F6
:102590000A038440120B01E0002300221B051343B1
:1025A0002000190010BD22000B38824012030024C5
:1025B000120BF3E71E04000070B542024300C40F83
:1025C000FE201B0E591C550A08420CD0E021890040
:1025D0008C466D07120B63441B051343E40723432A
:1025E0002800190070BD002B14D1002D1BD028002D
:1025F00000F02AF80A281CDC0B232A001B1ADA40F8
:10260000030015339D400E4B12031B1A5B05120B82
:102610005B0DE1E7002D09D0130B802212031A4352
:102620006D07084BD8E700230022D5E70022054BB1
:10263000D2E703002A000B3B9A400025E3E7C0469F
:1026400089030000FF0700001C2101231B0498429E
:1026500001D3000C10391B0A984201D3000A083933
:102660001B09984201D30009043902A2105C4018EA
:102670007047C0460403020201010101000000008E
:102680000000000090B589B000AF78600C243B19C1
:10269000180014231A00002103F066FB7B681868F9
:1026A0007B689B880122190001F049FB7B689B88AD
:1026B0001A003B191A603B1911225A607B68DB79BA
:1026C0001A003B199A603B190322DA607B681B6889
:1026D0003A191100180001F0A5F9C046BD4609B02D
:1026E00090BD90B589B000AF78600C243B191800FC
:1026F00014231A00002103F037FB7B689B881A0023
:102700003B191A603B1900225A607B68DB791A007A
:102710003B199A607B681B683A191100180001F098
:1027200081F9C046BD4609B090BD0000B0B58AB081
:1027300000AF786039601423FB18C74A03CA03C38B
:102740003B689B79002B05D12623FB18FA22D20087
:102750001A8004E02623FB18FA2292001A8001F066
:102760007FF802003B689B68D21A2623FB181B885F
:102770009A4211D23B689B68002B0DD03B681A69C6
:1027800014217B181A603B68DA687B185A607B68F2
:102790007A1803CA03C3A8E101F062F803005A1CC7
:1027A0003B689A603B681800FFF76CFF3B6818684D
:1027B0003B689B880022190001F0C1FA122001F049
:1027C00059F83B6818683B689B880122190001F0A2
:1027D000B6FA3B681800FFF784FF72B6C0462423A0
:1027E000FB1800221A801AE024217B181A887B1813
:1027F00001321A807B181B88984A93420FD962B61F
:10280000C0463B68C32212061A613B68C322120607
:10281000DA607B681422BA1803CA03C365E13B6817
:102820001A683B689B881900100001F06BFA0300DE
:10283000012BD9D02423FB1800221A801AE024216E
:102840007B181A887B1801321A807B181B88834AF0
:1028500093420FD962B6C0463B68C32212061A6182
:102860003B68C3221206DA607B681422BA1803CAD6
:1028700003C33AE13B681A683B689B881900100063
:1028800001F040FA0300012BD9D12423FB180022C8
:102890001A8012E024217B181A887B1801321A80D2
:1028A0007B181B886D4A934207D962B6C0467B6885
:1028B0001422BA1803CA03C317E13B681A683B68BD
:1028C0009B881900100001F01DFA0300012BE1D0D4
:1028D0000C23FB18624A1168196012791A712323BC
:1028E000FB1800221A706EE02223FB1807221A70D0
:1028F0005EE02023FB1800221A801E23FB18002212
:102900001A8005E01E217B181A887B1801321A8074
:102910003B681A683B689B881900100001F0F2F9C7
:102920000300012B05D01E23FB181B884D4A934240
:10293000E8D12423FB1800221A8005E020217B180F
:102940001A887B1801321A803B681A683B689B889A
:102950001900100001F0D6F90300012B05D1202346
:10296000FB181B883F4A9342E8D12023FA181E2304
:10297000FB1812881B889A4214D923203B181B7815
:102980000C243A19D35C5AB22223FB181B7801217C
:1029900099400B005BB213435AB23B181B78D1B27B
:1029A0003A19D15422217B181A787B18013A1A70EF
:1029B0002223FB181B78FF2B9BD123217B181A782D
:1029C0007B1801321A702323FB181B78042B8BD938
:1029D00062B6C0460C243B191A783B195B78D318B1
:1029E000DAB23B199B78D318DAB23B19DB78D318EB
:1029F000DAB23B191B799A426AD13B689B79012B69
:102A000050D13B191B781B023A1952781343180016
:102A1000FDF788FE031C1449181CFDF745FD031C37
:102A20001A1C14257B191A603B199B785BB2002B8A
:102A30001CDB3B199B781B023A19D2781343180010
:102A4000FDF770FE031C0849181CFDF72DFD031C43
:102A50001A1C7B195A6025E06880000810270000C6
:102A600070800008FFFF0000CDCCCC3D0C217B180E
:102A70009B787F221340DAB27B189A700A007B1889
:102A80009B781B02BA18D27813431800FDF74AFE50
:102A9000031C1849181CFDF707FD031C1A1C1423FE
:102AA000FB185A603B689B79002B11D10C243B1911
:102AB0001B781800FDF782FE021C14257B191A6092
:102AC0003B199B781800FDF779FE021C7B195A60B0
:102AD00014217B181A683B681A617B185A683B6896
:102AE000DA607B687A1803CA03C37868BD460AB007
:102AF000B0BDC046CDCCCCBDF0B587B002AF0400B0
:102B000008001100BB600F257B19221C1A700E24CF
:102B10003B19021C1A700D26BB190A1C1A70634659
:102B20007B603B191A787B191B781100180000F0A4
:102B30005DFBBB191B78012B0CD1114BB86801222E
:102B400001926A46D968116019685A689B6800F05A
:102B50005FFC10E00D23FB181B78022B0BD1094BF7
:102B6000B868012201926A46D968116019685A68EA
:102B70009B6800F04DFCC046BD4605B0F0BDC046A8
:102B80001000002000000020F0B58FB000AF4023FF
:102B900010229B18DB193B6300F008FE00F080F860
:102BA00000F05EF900F0C6F800F002F900F02CFA2F
:102BB000FA239B00180000F05DFE3723FB18152256
:102BC0001A703623FB1801221A70002000F04AFA0E
:102BD0002E4A37243B19187830257B199C46130060
:102BE00002220321FFF788FF2826BB19284A11007B
:102BF0001800FFF79BFDBB195B68181CFFF7DCFC96
:102C000002000B002349380003F042F83A003B1958
:102C100018787B199C46130002221721FFF76CFFDE
:102C2000BB191B68181CFFF7C7FC02000B001A49F0
:102C3000380003F02DF83A003B1918787B199C46B0
:102C4000130002222B21FFF757FF36203B1819787B
:102C50003B193A1912788A181A703B191B782A2BDB
:102C600003D13B18FF221A7008E03723FB181B78AA
:102C7000002B03D13623FB1801221A7000F022FA30
:102C8000064B180000F0F6FD9FE7C046788000086C
:102C90002000002084800008908000081027000099
:102CA00090B591B000AF10243B19180030231A00E2
:102CB000002103F059F83B00180010231A000021EE
:102CC00003F052F821007B1802221A607B180122BF
:102CD000DA607B1810221A617B1802221A627B18B4
:102CE00000225A627B18802212039A627B1800220B
:102CF000DA627B18180001F03FF8031E01D000F0E3
:102D000011F93B0007221A603B0002225A603B0087
:102D100080229A603B000022DA603B00002118000C
:102D200001F044FB031E01D000F0FCF8C046BD4694
:102D300011B090BD80B500AF1B4B1C4A1A601A4BF6
:102D4000822252005A60184B00229A60164BE022F1
:102D5000D200DA60144B00221A61134B00225A6130
:102D6000114B802292009A610F4B1022DA610E4BB8
:102D700000221A620C4B00225A620B4B00229A620C
:102D8000094B0722DA62084B00221A63064B08221D
:102D90005A63054B180001F02DFC031E01D000F012
:102DA000C1F8C046BD4680BD24020020003001406D
:102DB00080B586B000AF0823FB18180010231A0056
:102DC000002102F0D1FF3B00180008231A00002167
:102DD00002F0CAFF1F4B204A1A601E4B0F225A6096
:102DE0001C4B00229A601B4B1C4ADA60194B0022D4
:102DF0001A61184B00225A61164B00229A61154B3A
:102E0000180001F085FF031E01D000F08BF80821A7
:102E10007B18802252011A607A180E4B110018009C
:102E200001F0C6FF031E01D000F07CF83B00002239
:102E30001A603B0000225A603A00064B110018004D
:102E400002F0A8F9031E01D000F06CF8C046BD46A0
:102E500006B080BD88020020002C0140FFFF00006A
:102E600090B589B000AF0C243B19180014231A0048
:102E7000002102F079FF2A4B5A69294B8021C903AE
:102E80000A435A61264B5A698023DB031340BB6017
:102E9000BB68234B5A69224B802189020A435A613D
:102EA0001F4B5A6980239B0213407B607B689023F1
:102EB000DB0500224121180000F041FF9023DB05D3
:102EC00001221821180000F03AFF3B1901221A6074
:102ED0003B1901225A603B1901229A603B190022DA
:102EE000DA603A199023DB051100180000F09AFD12
:102EF00021007B1858221A607B1801225A607B1827
:102F000000229A607B180022DA607A189023DB0591
:102F10001100180000F086FDC046BD4609B090BD06
:102F20000010024080B500AF72B6C046C046FDE753
:102F300080B500AF9023DB0500221021180000F0BF
:102F4000FEFE052000F096FC9023DB0501221021F7
:102F5000180000F0F4FE052000F08CFCC046BD46D1
:102F600080BD000080B582B000AF0200FB1D1A706A
:102F70009023DB0500220821180000F0E0FE9023DA
:102F8000DB0500224021180000F0D9FEF91D084899
:102F90006423012201F0E6FB9023DB0501220821D6
:102FA000180000F0CCFEC046BD4602B080BDC04651
:102FB0002402002080B582B000AF78600A00FB1CBC
:102FC0001A709023DB0500220821180000F0B7FEDC
:102FD0009023DB0501224021180000F0B0FEFB1C0D
:102FE0001B789AB279680748642301F0BBFB9023F1
:102FF000DB0501220821180000F0A1FEC046BD46F5
:1030000002B080BD2402002080B500AFFFF790FF22
:10301000A220FFF7A7FFA020FFF7A4FFC820FFF71B
:10302000A1FF2420FFF79EFF8120FFF79BFF2620B2
:10303000FFF798FF2C20FFF795FF2E20FFF792FF58
:103040002F20FFF78FFF002000F00CF800F03AF877
:10305000A420FFF787FFAF20FFF784FFC046BD46DF
:1030600080BD000080B584B000AF0200FB1D1A7067
:10307000FB1D1B78012B01D1FF2200E000220D2354
:10308000FB181A700E23FB1800221A800CE00E2089
:103090003B181B880A4A0D2179180978D1543B182E
:1030A0003A18128801321A800E23FB181A888023DE
:1030B000DB009A42EBD3C046C046BD4604B080BD9B
:1030C000D002002080B582B000AF4020FFF74AFF59
:1030D000FB1D00221A701AE0FB1D1B78503BDBB26F
:1030E0001800FFF73FFF1020FFF73CFF0020FFF71D
:1030F00039FFFB1D1B78DA010A4BD3188021180019
:10310000FFF758FFFB1D1A78FB1D01321A70FB1DDB
:103110001B78072BE0D9AF20FFF724FFC046BD4640
:1031200002B080BDD002002090B583B000AF040093
:1031300008001100FB1D221C1A70BB1D021C1A7016
:103140007B1D0A1C1A70FB1D1B785BB2002B47DB32
:10315000BB1D1B783F2B43D87B1D1B78012B1ED139
:10316000FB1D1A78BB1D1B78DB08D8B20300DB01FE
:10317000D3181D4AD35C5AB2BB1D1B7807210B40E4
:10318000012199400B005BB2134359B2FB1D1A7821
:103190000300DB01D318C9B2134AD15421E0FB1D4F
:1031A0001A78BB1D1B78DB08D8B20300DB01D318EB
:1031B0000D4AD35C5BB2BA1D127807210A40012187
:1031C00091400A0052B2D24352B2134059B2FB1D91
:1031D0001A780300DB01D318C9B2034AD15400E0C6
:1031E000C046BD4603B090BDD002002080B582B07D
:1031F00000AF0200FB1D1A70BB1D0A1C1A70064BA3
:10320000FA1D12781A70044BBA1D12785A70C04613
:10321000BD4602B080BDC046D006002084B0B0B527
:1032200088B000AF0400042030254019C0190160A7
:1032300042608360FB1D221C1A7004235B19DB199A
:103240005B78FA1D12789A4203D2FB1D00221A7095
:1032500009E0042330229B18DB195A78FB1DF91D65
:1032600009788A1A1A70694B1B78190004233020D8
:103270001B18DB199A68FB1D1B78D3181B78CB1819
:10328000802B00DDBAE0614B5B78190004231B182A
:10329000DB199A68FB1D1B78D3181B78CB18402BC1
:1032A00000DDABE00023FB618FE0042330229B189C
:1032B000DB199A68FB1D1B78D2181B23FB181278A8
:1032C0001A7000237B6174E0042330201B18DB1983
:1032D000DA68FB1D1B7804210918C919C9784B430A
:1032E0001900FB69CB1804210918C91989785943B9
:1032F0007B69CB18D3181B78BB6013217B181B206C
:103300003A1812781A707B181B78072B07D97B188C
:1033100008221A703B183A181278083A1A700023DB
:10332000FB603DE0BA68FB689A40130080221340BE
:1033300018D0364B1A78FB68DBB2D318DAB27B6947
:10334000DBB2DB00DBB2D318D8B2304B5A78FB6962
:10335000DBB2D318D9B24423FB181B781A00FFF74D
:10336000E3FE1AE0294B1A78FB68DBB2D318DAB215
:103370007B69DBB2DB00DBB2D318D8B2234B5A78BF
:10338000FB69DBB2D318D9B24423FB181B785A422D
:103390005341DBB21A00FFF7C7FEFB680133FB6045
:1033A0001323FB181B78FA689A42BBD37B6901335D
:1033B0007B61042330229B18DB199B781A007B6900
:1033C000934281D3FB690133FB61042330215B18F5
:1033D000DB19DB781A00FB69934200D265E70B4BDF
:1033E0001A7804235B18DB199968FB1D1B78CB182E
:1033F0001B78D318DAB2054B1A7000E0C046BD4600
:1034000008B0B0BC08BC04B01847C046D0060020C5
:1034100084B090B585B002AF786004201024001904
:103420000824A446BC44604401604260836018E004
:103430007B685A1C7A601878042310229B18082293
:103440009446BC446344242208215218D2191278AD
:1034500001926A46D968116019685A689B68FFF73B
:10346000DDFE7B681B78002BE2D1C046C046BD461E
:1034700003B090BC08BC04B01847000080B582B00F
:1034800000AF0F4B9A690E4B01210A439A610C4B16
:103490009B69012213407B607B68094BDA69084B0A
:1034A000802149050A43DA61054BDA6980235B050F
:1034B00013403B603B68C046BD4602B080BDC0467D
:1034C0000010024090B58BB000AF786014243B1917
:1034D000180014231A00002102F046FC7B681B68C8
:1034E0001C4A934232D11C4B9A691B4B80214901E3
:1034F0000A439A61184B9A6980235B0113403B6130
:103500003B69154B5A69144B802189020A435A6161
:10351000114B5A6980239B021340FB60FB6821001A
:103520007B18A0221A607B1802225A607B180022A6
:103530009A607B180322DA607B1800221A617A18DD
:103540009023DB051100180000F06CFAC046BD4660
:103550000BB090BD003001400010024080B584B037
:1035600000AF78607B681B680A4A93420DD10A4B12
:103570009A69094B802109010A439A61064B9A69AD
:1035800080231B011340FB60FB68C046BD4604B0AE
:1035900080BDC046002C01400010024080B500AF45
:1035A000C046FDE780B500AFC046FDE780B500AF7F
:1035B000C046BD4680BD80B500AFC046BD4680BD9B
:1035C00080B500AF00F03AF9C046BD4680BD80B579
:1035D00000AF01231800BD4680BD80B582B000AFAA
:1035E0007860396002F01AFC030016221A60012389
:1035F0005B421800BD4602B080BD80B582B000AF0E
:10360000786001235A427B6811001800FFF7E5FF3C
:10361000C046FDE780B586B000AFF860B9607A605B
:1036200000237B610AE000E000BF0100BB685A1C78
:10363000BA60CAB21A707B6901337B617A697B68B0
:103640009A42F0DB7B681800BD4606B080BD80B5AD
:1036500086B000AFF860B9607A6000237B6109E052
:10366000BB685A1CBA601B78180000E000BF7B6979
:1036700001337B617A697B689A42F1DB7B681800D1
:10368000BD4606B080BD80B582B000AF7860012332
:103690005B421800BD4602B080BD80B582B000AF6D
:1036A000786039603B68802292015A6000231800DC
:1036B000BD4602B080BD80B582B000AF7860012306
:1036C0001800BD4602B080BD80B584B000AFF86080
:1036D000B9607A6000231800BD4604B080BD0000C8
:1036E00080B586B000AF7860144A154BD31A7B6161
:1036F0007B693B61134B1B68002B02D1114B124AB3
:103700001A60104B1A687B68D3183A699A4207D23C
:1037100002F084FB03000C221A6001235B4209E0E3
:10372000084B1B68FB60074B1A687B68D218054B77
:103730001A60FB681800BD4606B080BD002000205E
:1037400000040000D40600202808002080B500AF47
:10375000C046BD4680BD00000D488546FFF7F6FF18
:103760000C480D490D4A002302E0D458C4500433DC
:10377000C4188C42F9D30A4A0A4C002301E01360B2
:103780000432A242FBD302F04FFBFFF7FDF9FEE744
:1037900000200020000000200802002050990008AE
:1037A0000802002028080020FEE7000080B500AFD6
:1037B000074B1A68064B10210A431A60032000F0D9
:1037C00009F8FFF75BFE00231800BD4680BDC04628
:1037D0000020024090B583B000AF7860144B1C68A5
:1037E000144B1B781900FA239800FCF7A9FC03007E
:1037F00019002000FCF7A4FC0300180000F005F9F4
:10380000031E01D001230FE07B68032B0BD87968DE
:1038100001235B420022180000F0E2F8064B7A68B0
:103820001A60002300E001231800BD4603B090BDDC
:10383000340000203C0000203800002080B500AF9C
:10384000054B1B781A00054B1B68D218034B1A60F6
:10385000C046BD4680BDC0463C000020D8060020C2
:1038600080B500AF024B1B681800BD4680BDC04646
:10387000D806002080B584B000AF7860FFF7F0FF75
:103880000300BB607B68FB60FB68013305D00A4B1B
:103890001B781A00FB689B18FB60C046FFF7E0FF2F
:1038A0000200BB68D31AFA689A42F7D8C046C046ED
:1038B000BD4604B080BDC0463C00002090B583B03A
:1038C00000AF02003960FB1D1A70FB1D1B787F2BB7
:1038D00028D82F4AFB1D1B785BB29B08C0339B0086
:1038E0009B58FA1D1278110003220A40D200FF21D2
:1038F00091400A00D2431A4011003B689B01FF220D
:103900001A40FB1D1B78180003230340DB009A407C
:103910001F48FB1D1B785BB29B080A43C0339B000A
:103920001A5031E01B4AFB1D1B7819000F230B4076
:10393000083B9B0806339B00D31804331B68FA1D11
:103940001278110003220A40D200FF2191400A00A0
:10395000D2431A4011003B689B01FF221A40FB1D15
:103960001B78180003230340DB009A400948FB1D25
:103970001B781C000F232340083B9B080A43063397
:103980009B00C31804331A60C046BD4603B090BD07
:1039900000E100E000ED00E080B582B000AF7860AB
:1039A0007B685A1E80235B049A4201D3012310E0F6
:1039B0000A4B7A68013A5A6001235B4203211800DE
:1039C000FFF77CFF054B00229A60044B07221A6028
:1039D00000231800BD4602B080BDC04610E000E0E4
:1039E00080B584B000AFB9607A600F217B18021CEB
:1039F0001A70BA687B181B785BB211001800FFF7C9
:103A00005DFFC046BD4604B080BD80B582B000AF4A
:103A100078607B681800FFF7BFFF03001800BD4601
:103A200002B080BD80B586B000AF786039600023F9
:103A30007B614FE13B681B6801217A6991400A0074
:103A40001340FB60FB68002B00D140E13B685B68E2
:103A500003221340012B05D03B685B68032213400F
:103A6000022B30D17B689B683B617B695B00032242
:103A70009A401300DA433B6913403B613B68DA68C4
:103A80007B695B009A4013003A6913433B617B6892
:103A90003A699A607B685B683B6101227B699A4066
:103AA0001300DA433B6913403B613B685B681B09C9
:103AB00001221A407B699A4013003A6913433B6123
:103AC0007B683A695A603B685B6803221340032BAA
:103AD00017D07B68DB683B617B695B0003229A40FF
:103AE0001300DA433B6913403B613B689A687B698A
:103AF0005B009A4013003A6913433B617B683A6963
:103B0000DA603B685B6803221340022B23D17B6998
:103B1000DA087B6808329200D3583B617B69072240
:103B200013409B000F229A401300DA433B69134075
:103B30003B613B681A697B6907210B409B009A40F7
:103B400013003A6913433B617B69DA087B680832EA
:103B500092003969D1507B681B683B617B695B00CF
:103B600003229A401300DA433B6913403B613B68F0
:103B70005B6803221A407B695B009A4013003A6934
:103B800013433B617B683A691A603B685A68C023FB
:103B90009B02134000D19AE0544B9A69534B012188
:103BA0000A439A61514B9B6901221340BB60BB6879
:103BB0004F4A7B699B0802339B009B583B617B69A2
:103BC000032213409B000F229A401300DA433B6903
:103BD00013403B617A689023DB059A4213D07B68DF
:103BE000444A93420DD07B68434A934207D07B6896
:103BF000424A934201D1032306E0052304E0022355
:103C000002E0012300E000237A6903210A409200C8
:103C100093403A6913433B6135497B699B08023302
:103C20009B003A695A50364B9B683B61FB68DA430C
:103C30003B6913403B613B685A6880235B03134038
:103C400003D03A69FB6813433B612D4B3A699A6094
:103C50002B4BDB683B61FB68DA433B6913403B61FC
:103C60003B685A6880239B03134003D03A69FB6882
:103C700013433B61224B3A69DA60214B5B683B613D
:103C8000FB68DA433B6913403B613B685A68802319
:103C90009B02134003D03A69FB6813433B61184B06
:103CA0003A695A60164B1B683B61FB68DA433B6913
:103CB00013403B613B685A6880235B02134003D08A
:103CC0003A69FB6813433B610D4B3A691A607B69A3
:103CD00001337B613B681A687B69DA40131E00D0B0
:103CE000A8E6C046C046BD4606B080BD00100240F2
:103CF000000001400004004800080048000C004893
:103D00000004014080B584B000AF78600A00BB1C9D
:103D10001A807B681B69BA1C1288134004D00F23D9
:103D2000FB1801221A7003E00F23FB1800221A70FF
:103D30000F23FB181B781800BD4604B080BD80B56A
:103D400082B000AF786008001100BB1C021C1A8012
:103D50007B1C0A1C1A707B1C1B78002B04D0BB1C1C
:103D60001A887B689A6103E0BB1C1A887B689A6298
:103D7000C046BD4602B080BD80B588B000AF786057
:103D80007B68002B01D1012301E37B681B680122C2
:103D9000134000D18DE0C34B5B680C221340042B11
:103DA0000ED0C04B5B680C221340082B16D1BD4BC4
:103DB0005A6880235B021A4080235B029A420DD12D
:103DC000B84B1A6880239B02134000D170E07B68D7
:103DD0005B68002B00D06BE00123D8E27B685B6856
:103DE000012B07D1AF4B1A68AE4B802149020A4321
:103DF0001A602FE07B685B68002B0CD1A94B1A6816
:103E0000A84BA9490A401A60A64B1A68A54BA749B6
:103E10000A401A601EE07B685B68052B0ED1A14B3F
:103E20001A68A04B8021C9020A431A609D4B1A6888
:103E30009C4B802149020A431A600BE0994B1A6897
:103E4000984B99490A401A60964B1A68954B9749C6
:103E50000A401A607B685B68002B14D0FFF700FDF6
:103E60000300BB6108E0FFF7FBFC0200BB69D31A4B
:103E7000642B01D903238AE28A4B1A6880239B02B0
:103E80001340F0D015E0FFF7EBFC0300BB6108E046
:103E9000FFF7E6FC0200BB69D31A642B01D90323A8
:103EA00075E2804B1A6880239B021340F0D100E03A
:103EB000C0467B681B680222134000D169E0794B41
:103EC0005B680C2213400BD0764B5B680C221340CE
:103ED000082B1CD1734B5A6880235B02134016D108
:103EE000704B1B680222134005D07B68DB68012BF6
:103EF00001D001234BE26B4B1B68F822934319005E
:103F00007B681B69DA00674B0A431A6041E07B68F3
:103F1000DB68002B24D0634B1A68624B01210A43F3
:103F20001A60FFF79DFC0300BB6108E0FFF798FCF7
:103F30000200BB69D31A022B01D9032327E2594B94
:103F40001B6802221340F1D0564B1B68F8229343A2
:103F500019007B681B69DA00524B0A431A6018E0AB
:103F6000504B1A684F4B01218A431A60FFF778FCC7
:103F70000300BB6108E0FFF773FC0200BB69D31AC2
:103F8000022B01D9032302E2464B1B680222134095
:103F9000F1D17B681B680822134036D07B68DB694F
:103FA000002B19D03F4B5A6A3E4B01210A435A62FB
:103FB000FFF756FC0300BB6108E0FFF751FC02006D
:103FC000BB69D31A022B01D90323E0E1354B5B6AAD
:103FD00002221340F1D018E0324B5A6A314B0121D2
:103FE0008A435A62FFF73CFC0300BB6108E0FFF71D
:103FF00037FC0200BB69D31A022B01D90323C6E1A7
:10400000284B5B6A02221340F1D17B681B680422B3
:10401000134000D1B4E01F203B1800221A70214B3E
:10402000DA6980235B05134010D11E4BDA691D4B02
:10403000802149050A43DA611A4BDA6980235B055E
:104040001340FB60FB683B1801221A70184B1A687A
:1040500080235B0013401AD1154B1A68144B802142
:1040600049000A431A60FFF7FBFB0300BB6108E04D
:10407000FFF7F6FB0200BB69D31A642B01D90323B7
:1040800085E10B4B1A6880235B001340F0D07B68FE
:104090009B68012B0ED1034B1A6A024B01210A4384
:1040A0001A6235E000100240FFFFFEFFFFFFFBFF3A
:1040B000007000407B689B68002B0CD1B64B1A6ADD
:1040C000B54B01218A431A62B34B1A6AB24B0421E1
:1040D0008A431A621CE07B689B68052B0CD1AE4BAF
:1040E0001A6AAD4B04210A431A62AB4B1A6AAA4BF7
:1040F00001210A431A620BE0A74B1A6AA64B012161
:104100008A431A62A44B1A6AA34B04218A431A6297
:104110007B689B68002B14D0FFF7A2FB0300BB61F8
:1041200009E0FFF79DFB0200BB69D31A9B4A93424B
:1041300001D903232BE1984B1B6A02221340F0D0D4
:1041400013E0FFF78DFB0300BB6109E0FFF788FB7D
:104150000200BB69D31A914A934201D9032316E1A5
:104160008D4B1B6A02221340F0D11F23FB181B78D2
:10417000012B05D1884BDA69874B89490A40DA61FE
:104180007B681B681022134063D07B685B69012B3E
:104190002AD1814B5A6B804B04210A435A637E4BD0
:1041A0005A6B7D4B01210A435A63FFF759FB030009
:1041B000BB6108E0FFF754FB0200BB69D31A022B76
:1041C00001D90323E3E0744B5B6B02221340F1D06F
:1041D000714B5B6BF822934319007B689B69DA0093
:1041E0006D4B0A435A6334E07B685B69053311D138
:1041F000694B5A6B684B04218A435A63664B5B6B6D
:10420000F822934319007B689B69DA00624B0A43EA
:104210005A631EE0604B5A6B5F4B04210A435A639A
:104220005D4B5A6B5C4B01218A435A63FFF718FBC5
:104230000300BB6108E0FFF713FB0200BB69D31A60
:10424000022B01D90323A2E0534B5B6B02221340E4
:10425000F1D17B681B6A002B00D197E04E4B5B6865
:104260000C221340082B00D16BE07B681B6A022BE9
:104270004CD1494B1A68484B4A490A401A60FFF72B
:10428000EFFA0300BB6108E0FFF7EAFA0200BB693E
:10429000D31A022B01D9032379E03F4B1A688023FC
:1042A0009B041340F0D13C4BDB6A0F22934319006F
:1042B0007B68DA6A384B0A43DA62374B5B683A4A02
:1042C000134019007B689A6A7B685B6A1A43324B19
:1042D0000A435A60304B1A682F4B802149040A4325
:1042E0001A60FFF7BDFA0300BB6108E0FFF7B8FAF8
:1042F0000200BB69D31A022B01D9032347E0264BE6
:104300001A6880239B041340F0D03FE0224B1A68C8
:10431000214B24490A401A60FFF7A2FA0300BB614F
:1043200008E0FFF79DFA0200BB69D31A022B01D9FE
:1043300003232CE0184B1A6880239B041340F0D110
:1043400024E07B681B6A012B01D101231FE0124B83
:104350005B687B61104BDB6A3B617A6980235B029F
:104360001A407B685B6A9A420ED13B690F221A4061
:104370007B68DB6A9A4207D17A69F0239B031A4073
:104380007B689B6A9A4201D0012300E00023180059
:10439000BD4608B080BDC046001002408813000032
:1043A000FFFFFFEFFFFFFFFEFFFFC2FF80B584B0FE
:1043B00000AF786039607B68002B01D10123B3E046
:1043C0005B4B1B68012213403A689A4211D9584B43
:1043D0001B68012293431900554B3A680A431A603F
:1043E000534B1B68012213403A689A4201D00123C3
:1043F0009AE07B681B680222134015D07B681B681B
:104400000422134006D04B4B5A684A4BE021C900A6
:104410000A435A60474B5B68F022934319007B685C
:104420009A68444B0A435A607B681B680122134018
:1044300040D07B685B68012B07D13E4B1A68802314
:104440009B02134014D101236EE07B685B68022B52
:1044500007D1384B1A6880239B04134008D10123ED
:1044600062E0344B1B680222134001D101235BE060
:10447000304B5B680322934319007B685A682D4BCD
:104480000A435A60FFF7ECF90300FB6009E0FFF70D
:10449000E7F90200FB68D31A274A934201D90323A4
:1044A00042E0244B5B680C221A407B685B689B00EF
:1044B0009A42ECD11E4B1B68012213403A689A4283
:1044C00011D21B4B1B68012293431900184B3A6809
:1044D0000A431A60164B1B68012213403A689A423D
:1044E00001D0012320E07B681B680422134009D01F
:1044F000104B5B68114A134019007B68DA680D4B5A
:104500000A435A6000F020F801000A4B5B681B095F
:104510000F2213400A4AD35C0A00DA40094B1A60A2
:104520000320FFF757F900231800BD4604B080BDF3
:10453000002002400010024088130000FFF8FFFF37
:10454000A89500083400002080B586B000AF002395
:10455000FB600023BB6000237B6100237B600023A2
:104560003B61204B5B68FB60FB680C221340042B13
:1045700002D0082B03D02CE01B4B3B612CE0FB68E6
:104580009B0C0F221340194AD35C7B60154BDB6AEE
:104590000F221340164AD35CBB60FA6880235B028B
:1045A000134009D0B9681048FBF7CAFD03001A0090
:1045B0007B6853437B6109E079680A005201521A13
:1045C00093019B1ADB005B181B027B617B693B61DB
:1045D00002E0054B3B61C0463B691800BD4606B092
:1045E00080BDC0460010024000127A00B895000855
:1045F000C895000880B584B000AF78607B68002B58
:1046000001D10123A8E07B685B6A002B09D17B689C
:104610005A6882235B009A4209D07B680022DA61E3
:1046200005E07B6800221A617B6800225A617B6882
:1046300000229A627B685D229B5CDBB2002B07D173
:104640007B685C22002199547B681800FEF73AFFD2
:104650007B685D22022199547B681B681A687B681D
:104660001B6840218A431A607B68DA68E023DB001C
:104670009A4202D90023FB6002E080235B01FB60C9
:104680007B68DA68F0231B019A4208D07B68DA68FD
:10469000E023DB009A4202D07B6800229A627B68AA
:1046A0005A6882235B001A407B68996884231B0246
:1046B0000B401A437B681B6902210B401A437B683D
:1046C0005B6901210B401A437B68996980239B0039
:1046D0000B401A437B68DB6938210B401A437B6827
:1046E0001B6A80210B401A4311007B689A6A802361
:1046F0009B011A407B681B680A431A607B689B69B0
:104700001B0C04221A407B685B6A10210B401A4381
:104710007B685B6B08210B401A437B68D968F023E8
:104720001B010B401A431100FA6880235B011A40F9
:104730007B681B680A435A607B681B68DA697B6880
:104740001B6807490A40DA617B6800221A667B68A9
:104750005D220121995400231800BD4604B080BD9C
:10476000FFF7FFFF80B588B000AFF860B9603B602D
:10477000BB1D1A801F23FB1800221A70FB685C22E5
:104780009B5C012B01D1022347E1FB685C220121E4
:104790009954FFF765F80300BB611623FB18BA1D97
:1047A00012881A80FB685D229B5CDBB2012B04D06F
:1047B0001F23FB1802221A7028E1BB68002B03D0CC
:1047C000BB1D1B88002B04D11F23FB1801221A706C
:1047D0001CE1FB685D2203219954FB6800221A66E4
:1047E000FB68BA689A63FB68BA1D12889A87FB68EF
:1047F000BA1D1288DA87FB6800221A64FB6844221B
:1048000000219952FB68462200219952FB68002240
:104810001A65FB680022DA64FB689A6880231B0231
:104820009A4210D1FB681B681A68FB681B6840211C
:104830008A431A60FB681B681A68FB681B68802142
:10484000C9010A431A60FB681B681B6840221340B9
:10485000402B07D0FB681B681A68FB681B68402167
:104860000A431A60FB68DA68E023DB009A4252D9F7
:10487000FB685B68002B04D01623FB181B88012BF8
:1048800043D1FB689B6B1A88FB681B68DA60FB6886
:104890009B6B9A1CFB689A63FB68DB8F9BB2013BA6
:1048A0009AB2FB68DA8730E0FB681B689B680222DB
:1048B0001340022B12D1FB689B6B1A88FB681B68A4
:1048C000DA60FB689B6B9A1CFB689A63FB68DB8F62
:1048D0009BB2013B9AB2FB68DA8716E0FEF7C0FF95
:1048E0000200BB69D31A3A689A4202D83B68013386
:1048F00002D13B68002B08D11F23FB1803221A703A
:10490000FB685D220121995480E0FB68DB8F9BB23C
:10491000002BC9D153E0FB685B68002B04D0162341
:10492000FB181B88012B45D1FB689A6BFB681B6841
:104930000C3312781A70FB689B6B5A1CFB689A63E5
:10494000FB68DB8F9BB2013B9AB2FB68DA8731E0F0
:10495000FB681B689B6802221340022B13D1FB6883
:104960009A6BFB681B680C3312781A70FB689B6BA0
:104970005A1CFB689A63FB68DB8F9BB2013B9AB2BF
:10498000FB68DA8716E0FEF76BFF0200BB69D31AFB
:104990003A689A4202D83B68013302D13B68002B47
:1049A00008D11F23FB1803221A70FB685D22012126
:1049B00099542BE0FB68DB8F9BB2002BC8D1BA69FE
:1049C0003968FB68180000F05DF9031E02D0FB682F
:1049D00020221A66FB689B68002B0AD100233B61EA
:1049E000FB681B68DB683B61FB681B689B683B617D
:1049F0003B69FB681B6E002B04D01F23FB180122B0
:104A00001A7003E0FB685D2201219954FB685C2267
:104A1000002199541F23FB181B781800BD4608B0CD
:104A200080BD000080B588B000AFF860B9603B6021
:104A3000FB1D1A70FEF714FF0200BB6A9B1A3A684E
:104A4000D318FB61FEF70CFF0300BB613A4B1B68F8
:104A50005B011B0DFA6953437B6158E03B680133EE
:104A600055D0FEF7FDFE0200BB69D31AFA699A42DF
:104A700002D9FB69002B42D1FB681B685A68FB68AE
:104A80001B68E0218A435A60FB685A6882235B00F6
:104A90009A4213D1FB689A6880231B029A4205D080
:104AA000FB689A688023DB009A4207D1FB681B6889
:104AB0001A68FB681B6840218A431A60FB689A6A7F
:104AC00080239B019A4210D1FB681B681A68FB681F
:104AD0001B681A490A401A60FB681B681A68FB6861
:104AE0001B68802189010A431A60FB685D2201214D
:104AF0009954FB685C2200219954032317E07B69D9
:104B0000002B01D10023FB617B69013B7B61FB68CA
:104B10001B689B68BA681340BA68D31A5A4253415B
:104B2000DBB21A00FB1D1B789A4297D100231800B4
:104B3000BD4608B080BDC04634000020FFDFFFFF47
:104B400080B58AB000AFF860B9607A603B60172327
:104B5000FB1800221A70FEF783FE02003B6B9B1AC3
:104B60003A68D3187B62FEF77BFE03003B62FB686A
:104B70001B680C33FB61414B1A6813009B009B18A8
:104B8000DA00D31A1B0D7A6A5343BB6168E0BA6836
:104B9000C023DB009A420AD17B68002B07D1FB6956
:104BA0001B78DAB217217B181A707B181B783B68C8
:104BB000013355D0FEF754FE02003B6AD31A7A6ADD
:104BC0009A4202D97B6A002B42D1FB681B685A6863
:104BD000FB681B68E0218A435A60FB685A6882239D
:104BE0005B009A4213D1FB689A6880231B029A42A9
:104BF00005D0FB689A688023DB009A4207D1FB68E6
:104C00001B681A68FB681B6840218A431A60FB68AE
:104C10009A6A80239B019A4210D1FB681B681A682C
:104C2000FB681B6816490A401A60FB681B681A6813
:104C3000FB681B68802189010A431A60FB685D22BA
:104C400001219954FB685C2200219954032310E050
:104C5000BB69002B01D100237B62BB69013BBB61B7
:104C6000FB681B689B68BA6813407A689A428ED1C9
:104C700000231800BD460AB080BDC04634000020A5
:104C8000FFDFFFFF80B586B002AFF860B9607A60E1
:104C9000BA68C0235901F8687B68009313000022AA
:104CA000FFF74EFF031E07D0FB681B6E20221A433E
:104CB000FB681A66032327E0BA68F8687B680093EC
:104CC000130000228021FFF7ADFE031E07D0FB6812
:104CD0001B6E20221A43FB681A66032314E0BA688D
:104CE000C023D900F8687B68009313000022FFF707
:104CF00027FF031E07D0FB681B6E20221A43FB68A8
:104D00001A66032300E000231800BD4604B080BDEE
:104D100080B582B000AF78607B68002B01D10123A1
:104D200042E07B683D229B5CDBB2002B07D17B68B5
:104D30003C22002199547B681800FEF70FFC7B6829
:104D40003D22022199547B681A687B68043319005C
:104D5000100000F001F97B684622012199547B681C
:104D60003E22012199547B683F22012199547B689E
:104D70004022012199547B684122012199547B688A
:104D80004222012199547B684322012199547B6876
:104D90004422012199547B684522012199547B6862
:104DA0003D220121995400231800BD4602B080BD68
:104DB00080B584B000AF786039600F23FB18002203
:104DC0001A707B683C229B5C012B01D10223BCE062
:104DD0007B683C22012199547B683D220221995431
:104DE0007B681B689B68BB60BB6877229343BB6092
:104DF000BB68584A1340BB607B681B68BA689A60FE
:104E00003B681B6880229201934240D0802292012D
:104E1000934200D988E080225201934200D188E079
:104E200080225201934200D97EE0702B18D000D925
:104E30007AE0602B4FD000D976E0502B3BD000D9E0
:104E400072E0402B57D000D96EE0302B63D06BD886
:104E5000202B60D068D8002B5DD0102B5BD063E096
:104E60007B6818683B6899683B685A683B68DB68F0
:104E700000F070F97B681B689B68BB60BB68772299
:104E80001343BB607B681B68BA689A6052E07B681A
:104E900018683B6899683B685A683B68DB6800F0B3
:104EA00059F97B681B689A687B681B688021C90177
:104EB0000A439A603EE07B6818683B6859683B6823
:104EC000DB681A0000F0CCF87B681B6850211800E2
:104ED00000F026F92EE07B6818683B6859683B684B
:104EE000DB681A0000F0EAF87B681B686021180094
:104EF00000F016F91EE07B6818683B6859683B684B
:104F0000DB681A0000F0ACF87B681B6840211800D1
:104F100000F006F90EE07B681A683B681B68190010
:104F2000100000F0FDF805E00F23FB1801221A70B5
:104F300000E0C0467B683D22012199547B683C22F9
:104F4000002199540F23FB181B781800BD4604B0AC
:104F500080BDC046FF00FFFF80B584B000AF786021
:104F600039607B681B68FB607B68364A934203D0DC
:104F70007B68354A934208D1FB6870229343FB60FB
:104F80003B685B68FA681343FB607B682D4A934279
:104F900013D07B682C4A93420FD07B682B4A9342F4
:104FA0000BD07B682A4A934207D07B68294A9342F8
:104FB00003D07B68284A934208D1FB68274A1340F4
:104FC000FB603B68DB68FA681343FB60FB68802288
:104FD00093431A003B685B691343FB607B68FA6884
:104FE0001A603B689A687B68DA623B681A687B687B
:104FF0009A627B68134A93420BD07B68144A9342AF
:1050000007D07B68134A934203D07B68124A9342CD
:1050100003D13B681A697B681A637B6801225A6175
:105020007B681B6901221340012B06D17B681B6939
:10503000012293431A007B681A61C046BD4604B042
:1050400080BDC046002C014000040040002000400C
:10505000004001400044014000480140FFFCFFFFC8
:1050600080B586B000AFF860B9607A60FB681B6AF3
:105070007B61FB681B6A012293431A00FB681A627A
:10508000FB689B693B613B69F02293433B617B6812
:105090001B013A6913433B617B690A2293437B619D
:1050A0007A69BB6813437B61FB683A699A61FB6864
:1050B0007A691A62C046BD4606B080BD80B586B02A
:1050C00000AFF860B9607A60FB681B6A7B61FB68BF
:1050D0001B6A102293431A00FB681A62FB689B69E3
:1050E0003B613B690D4A13403B617B681B033A6996
:1050F00013433B617B69A02293437B61BB681B0127
:105100007A6913437B61FB683A699A61FB687A6943
:105110001A62C046BD4606B080BDC046FF0FFFFF05
:1051200080B584B000AF786039607B689B68FB60B5
:10513000FB6870229343FB603A68FB6813430722C5
:105140001343FB607B68FA689A60C046BD4604B0B2
:1051500080BD000080B586B000AFF860B9607A60AD
:105160003B60FB689B687B617B69094A13407B61FC
:105170003B681A027B681A43BB6813437A6913437E
:105180007B61FB687A699A60C046BD4606B080BD07
:10519000FF00FFFF80B584B000AF786039607B68A6
:1051A0003C229B5C012B01D1022341E07B683C2225
:1051B000012199547B683D22022199547B681B6828
:1051C0005B68FB607B681B689B68BB60FB68702248
:1051D0009343FB603B681B68FA681343FB607B6882
:1051E0001B68FA685A607B681B68134A934209D0AF
:1051F0007B681B68114A934204D07B681B68104A85
:1052000093420CD1BB6880229343BB603B685B68D0
:10521000BA681343BB607B681B68BA689A607B6896
:105220003D22012199547B683C220021995400239E
:105230001800BD4604B080BD002C014000040040B1
:1052400000400140F0B51F00002316008BB09F42C4
:1052500004DA802109067B181F002D23129A149D61
:105260001370202303229D43462D07D02B00453B7E
:1052700059424B411099013ACB18109309AB049352
:1052800008AB0393139B00920293109B320001938F
:105290003B0000F089FE0400472D1BD1119BDB076A
:1052A00011D5109BC318079300220023300039004A
:1052B000FBF7CCF8002801D0079B09933022099B0B
:1052C00007998B4220D32000099B159A1B1B136062
:1052D0000BB0F0BD109BC3180793462DE4D10378A3
:1052E000302B0CD10022002330003900FBF7AEF840
:1052F000002804D10123109A9B1A139A1360139B60
:10530000079A1B68D318CEE7591C09911A70D6E783
:10531000F0B52B2305000C0085B00270002901DADE
:105320004C4202336B70092C2CDD02ABDE1D2000D9
:105330000A21FBF775F837003031013E200031704B
:105340000A210194FAF786FF019B0400632BEEDC2F
:10535000BA1EA81C010013003034147002AC0734CC
:105360009C420AD80023A24203D8093302AA9B1800
:10537000DB1BC018401B05B0F0BD1C7801330C705E
:105380000131EBE73023E418AB70281DEC70F1E736
:10539000F0B597B00D000A921C9C0B93099000F099
:1053A000EBFC036818000D93FAF7AEFE00230F9094
:1053B00014932B7E07220C932B680E930E9923686F
:1053C000C90545D59B1893431A0008322260012273
:1053D0001E685F687B005B0811931096AE64EF64F3
:1053E00010981199A74B5242FDF736F8002831D199
:1053F000109811990122A34B5242FBF737F800286D
:1054000028D10022002330003900FBF725F80028BE
:1054100003D02B002D2243331A700C9B9A4F472B3D
:1054200000D99A4F032300240E9A2B6101339A432B
:105430002A600B9B2900009309980A9B15AA00F08B
:10544000E5F9013000D09FE00120404217B0F0BDE7
:105450000733B8E732003B0030003900FCF7FCFFAF
:1054600000280BD0002F03DA2B002D2243331A70B3
:105470000C9B874F472BD5D9864FD3E720220C9C16
:105480006B6894435A1C46D107336B6080230E9A95
:10549000DB00134300222B60069214AA05920C9A9B
:1054A0000AA9049213AA039223225218029201938A
:1054B0006B683200009309983B00FFF7C3FE139A14
:1054C0000700472C2DD1D31C02DB6B689A4248DDC4
:1054D0000C9B1399023BDBB20C9328000C9A013908
:1054E00050301391FFF714FF149A040013182B6126
:1054F000012A02DC2A68D20701D501332B6123235C
:105500000AAA9B181B78002B00D192E72B002D22B2
:1055100043331A708DE7472CB8D1002BB6D1013335
:10552000B3E70C9B1100652BD7D90C9B662B1AD1C6
:105530006B68002A09DD2A61002B02D12968C9079E
:105540000BD501339B182B6107E0002B03D10122FF
:105550002968114200D09A1C2A61139B0024AB6574
:10556000CDE767230C931399149B994206DB2B68B4
:105570002961DB07F1D501312961EEE7012200291C
:10558000E0DC9218521ADDE72A68530508D42B692B
:105590003A000A9909980B9CA047013029D153E79A
:1055A0000C9B652B00D8DAE0A86CE96C0022002384
:1055B000FAF74CFF002833D00123374A0A9909989B
:1055C0000B9CA047013000D13EE7149E139BB342D1
:1055D00002DB2B68DB070CD50B9C0F9B0D9A0A99FD
:1055E0000998A0470024013000D12DE7731EA34283
:1055F0000ADC2B689B0700D505E1159BE8689842FB
:1056000000DB23E7180021E72A0001230A99099803
:105610000B9F1A32B847013000D115E70134E5E796
:10562000139B002B3ADC01231B4A0A9909980B9C17
:10563000A047013000D107E7149E139B334302D1EA
:105640002B68DB07D5D50F9B0D9A0A9909980B9CFF
:10565000A0470023013000D1F6E60C93139B0C9A6F
:105660005B42934201DC330092E72A0001230A994E
:1056700009980B9C1A32A047013000D1E4E60C9B3C
:105680000133EAE7FFFFEF7FD8950008DC950008BB
:10569000E0950008E4950008E8950008149BAE6DBD
:1056A0000C939E4200DD1E00002E31DCF3430024EB
:1056B000DB1733400E93AE6D0E9BF31AA34230DC22
:1056C000139B0C9A9A4238DC2B68DB0735D4139C69
:1056D0000C9B0C9A9B1B141B9C4200DD1C00002C95
:1056E00034DCE3430026DB171C40139B0C9AD31ACF
:1056F0001B1BB34200DC7CE72A0001230A990998AE
:105700000B9F1A32B847013000D19DE60136ECE715
:1057100033003A000A9909980B9CA0470130C5D183
:1057200092E62A0001230A9909980B9E1A32B04783
:10573000013000D188E60134BDE70F9B0D9A0A992C
:1057400009980B9CA0470130C1D17DE6BA1923000E
:105750000A9909980B9EB0470130C2D174E6149B98
:105760000C93012B02DC01231A4239D001233A00A9
:105770000A9909980B9EB047013000D164E60F9B4F
:105780000D9A0A9909980B9EB047013000D15BE64B
:10579000A86CE96C0C9B0022013B0C930023FAF7E8
:1057A00055FE00281AD10C9B7A1C0A9909980B9E69
:1057B000B04701300ED147E62A0001230A99099823
:1057C0000B9F1A32B847013000D13DE601360C9BE1
:1057D0009E42F1DB2A0023005032DAE60026F6E78B
:1057E0003A00E2E72A0001230A9909980B9E193230
:1057F000B047013000D127E60134EB68159A9B1AB7
:10580000A342EFDCF9E60024F7E7C046F7B516003F
:1058100001938A680B690C000090934200DA130030
:105820002200336043321278002A01D00133336002
:1058300023689B0602D5336802333360226806234F
:1058400015001D401A4227D0230043331B785A1EEF
:1058500093412268920630D4220001990098089D55
:105860004332A847013025D0062223680025134083
:10587000042B05D13368E568ED1AEB43DB171D40B7
:10588000A3682269934201DD9B1AED180026B542F8
:1058900020D1002010E00135E36832689B1AAB424A
:1058A000D2DD2200012301990098089F1932B847E0
:1058B0000130F0D101204042FEBD3020E1184331DB
:1058C000087021005A1C45310978A218433202336E
:1058D0001170C1E72200012301990098089F1A3234
:1058E000B8470130E6D00136D1E70000F0B58BB003
:1058F00006920A0043320793059003920A7E0C0039
:10590000109B782A09D8622A0BD8002A00D1BCE063
:105910007B490491582A00D190E0250042352A7035
:1059200022E0100063381528F7D8FAF7FFFB1600BD
:105930001F00F6FFF6FFF6FFF6FF1F00F6FFF6FF6B
:10594000F6FFF6FFA10036008000F6FFF6FFB2007A
:10595000F6FF3600F6FFF6FF840025001A68423590
:10596000111D196013682B700123A0E018680968E5
:10597000021D0D060BD506681A60002E03DA2D23D2
:10598000039A764213705E4B0A27049318E0066868
:105990001A604906F1D536B2EFE70868196840C9C0
:1059A000050602D4400600D5B6B21960544B0A274A
:1059B00004936F2A00D1023F2300002243331A7060
:1059C0006368A360002B03DB042122688A43226002
:1059D000002E02D1039D002B0CD0039D3000390016
:1059E000FAF734FC049B013D5B5C2B70330006002E
:1059F0009F42F3D9082F09D12368DB0706D56268D7
:105A000023699A4202DC3023013D2B70039B5B1B10
:105A10002361079B210000930598069B09AAFFF7C5
:105A2000F5FE013048D1012040420BB0F0BD2022EC
:105A300009680A43226078223249049121004531E5
:105A40000A701968226840C9100602D4500600D5B1
:105A5000B6B21960D30702D5202313432360002E6A
:105A600001D01027A8E72022236893432360F8E79A
:105A70001A680D68101D4969186013682E0601D553
:105A8000196002E06D06FBD519800023039D236198
:105A9000BFE71A68111D19601568002128006268A7
:105AA00000F0E9F9002801D0401B606063682361C1
:105AB0000023039A1370ACE72A002369069905981E
:105AC000079DA8470130AED023689B0715D4099BDA
:105AD000E0689842A9DA1800A7E722000123069996
